:020000040000FA
:040000000EEF13F0FC
:0800080029EF14F00401048546
:10001000048F0085008F1200E0EF12F0665300009D
:1000200001E11200FF0E00000000000000000000CF
:1000300000000000000000000000000000000000C0
:1000400000000000000000000000000000000000B0
:1000500000000000000000000000000000000000A0
:100060000000000000000000000000000000000090
:10007000000000000000000000000000FF0FD8A4F6
:10008000D2D70000000000000000000000000000C7
:1000900000000000000000000000662FC3D712001F
:1000A000FA0E666F0EEC00F0FA0E666F0EEC00F0C2
:1000B000FA0E666F0EEC00F0FA0E666F0EEC00F0B2
:1000C000122FEED71200C851CD6FC951CE6FCA5151
:1000D000D26FCB51D36F000ECC6512D0D351EA6EE4
:1000E000D251E96ED24BD32BEF50CF6FCE51EA6E87
:1000F000CD51E96ECD4BCE2BCF51EF6ECC07EBD768
:10010000C851D06FC951D16F12000201BE6B0101FD
:10011000F5510201BE6125D00101D951DD5D02E139
:10012000D851DC5D1EE2DB51DD5D02E1DA51DC5DC0
:1001300018E2DF51EA6EDE51E96EEF500201BF6F47
:100140000101E151EA6EE0510201BE25E96EBF51A5
:10015000EF6E0101DE4BDF2BDC4BDD2B0201BE2BF2
:10016000D6D70101F5510201BE6110D00101DA516B
:10017000DC6304D0DB51DD6301D006D0D851DC63F1
:1001800005D0D951DD6302D0050EF46F0201BE51D6
:100190000401056F050E076F080E066F04AD02D04F
:1001A000049D01D0048D049B049904870495049355
:1001B0000491048F1200080E0101F56FDC6BDD6BFA
:1001C000010ED86FD96BDA6BDB6B0201BD510101F7
:1001D000F76F010EDF6FF70EDE6F040EE36F040E94
:1001E000E26F050EE16F080EE06F0401049D85ECDF
:1001F00000F01200080E0101F56F040EE36F040E0B
:10020000E26F050EE16F080EE06FDC6BDD6BD86B03
:10021000D96BDA6BDB6BDE6BDF6B0401049D85EC65
:1002200000F01200C36BC46BBD0510E0020EBD638D
:1002300001D016D0030EBD6301D01CD0060EBD63E5
:1002400001D047D0220EBD6344D03AD0000EC76F14
:100250004D0EC36FC751C46F120EC56FC66B39D038
:10026000000EC76FA00EC36FC751C46F290EC56FB4
:10027000C66B2FD0BE5306E0BE050EE0020EBE6375
:1002800028D014D0040EC56FC66B010EC76FB40E14
:10029000C36FC751C46F1DD0280EC56FC66B010E4A
:1002A000C76F000EC36FC751C46F13D0280EC56F40
:1002B000C66B000EC76FC90EC36FC751C46F09D09C
:1002C0001D0EC56FC66B010EC76F280EC36FC751D9
:1002D000C46FC051EA6EBF51E96EE92AC351C76FBE
:1002E000C451EF6EE906C751EF6EC251EA6EC151BB
:1002F000E96EE92AC551C76FC651EF6EE906C751CD
:10030000EF6E1200010E0101F16FEF6B12007188A8
:1003100071847182718604010C8D0C9B0C990C9771
:100320000C950C930C910C9F400E096F500E0A6FA8
:10033000050E0B6F089D089B089908970895089370
:100340000891088F1200080E0401016F026B050E60
:10035000036F008D009B009900870095009300912A
:10036000008F1200060EB46301D00FD0050EB463E7
:1003700001D040D0090EB46301D047D00A0EB46357
:1003800001D050D0B45356E05AD0B651BB6FB551DE
:10039000BC6FBB51BD6FBC51BE6F010EC06FDE0E96
:1003A000BF6F010EC26FD80EC16F12EC01F00101D8
:1003B000DE5302E1DF531BE0030EF46F0201B9517B
:1003C0000101DA6F0201BA510101DB6FDC6BDD6BF9
:1003D000080EF56F040EE36F040EE26F080EE06F77
:1003E000050EE16F0401049D85EC00F0120006EC9F
:1003F00000F01200B5510101F36F010EF66FFAEC37
:1004000000F0060E0101F46F1200060E0101F46FF8
:10041000FAEC00F0030E0101F26F87EC01F082ECC0
:1004200001F01200030E0101F46F010E0201BD6F15
:10043000DBEC00F00201BD6BDBEC00F0120006EC1F
:1004400000F01200B405D8B41200020EB46301D05B
:100450001200030EB46301D01200090EB46301D080
:1004600012000A0EB46301D004D00B0EB463120064
:10047000120006EC00F01200120012000101EF6BF6
:100480001200B5510101F06F0201B76BB551B761B0
:10049000B65115E0B451EA6EB351E96EB751B86F79
:1004A000B851E926EF50B96F000100EE60F0E95055
:1004B0000201B751E926B951EF6EB72BE7D7400ECD
:1004C000B7611200B551B76F400EB761120000015D
:1004D00000EE60F0E9500201B751E926000EEF6E20
:1004E000B72BF2D70101F16B120012000101F36B7F
:1004F000F46BF66B6896689668966896080E040129
:10050000016F026B050E036F009D009B0099009721
:10051000009500930091008F080E056F066F050E81
:10052000076F049D049B0499049504930491049F10
:1005300072EC02F012006C300201AE6FAE33AE33DB
:100540001F0EAE176CA40AD0040104310201AF6F74
:10055000AF333F0EAF170F0EAF170AD004010031B3
:100560000201B06FB0333F0EB0170F0EB015AF6F72
:10057000AE53D8A4C6D00D0EAF636CD0010EC96FB8
:10058000600EC86F050ECB6F000ECA6F080ECC6FE1
:1005900063EC00F0A3EC01F0400E010160150201D4
:1005A000B06FB0672AD0200E010160150201B16F53
:1005B000B16723D0010167510201BA6F0101665191
:1005C0000201B96F010165510201B86F0101645167
:1005D0000201B76F010163510201B66F010162515F
:1005E0000201B56F010161510201B46F0101605157
:1005F0000201B36FB2EC01F02BD0400E0101601587
:100600000201B26FB26724D0010160AB21D0675103
:100610000201BA6F010166510201B96F0101655112
:100620000201B86F010164510201B76F010163510A
:100630000201B66F010162510201B56F0101615102
:100640000201B46F010160510201B36F22EC02F0AC
:100650006D981200090EAF631FD0030E0101F46301
:1006600003D085EC00F01200060EF4630AD0F46BA0
:10067000F605D8A41200020EF26FF3516E6EF66BFF
:100680001200050EF46302D000001200040EF463A1
:1006900012003DEC02F01200020EAF6312D0030E06
:1006A0000101F46303D085EC00F01200040EF46342
:1006B00003D03DEC02F01200060EF4631200F46B5E
:1006C0001200AF05D8A41200050E0101F46302D098
:1006D000F46B14D0020EF4630DD0050E0201B16F5D
:1006E000000EB06F040101510201B26FB36B3CEC1C
:1006F00002F004D0030EF46301D0F46BA3EC01F01C
:1007000012006CA41AD0010101EE9CF0E950020124
:10071000AE51B26FD890B235E926EE50B06FEF50BF
:10072000B16FAE51B26FB151EA6EB051E96EEC509B
:10073000B36FB46B3EEC02F01200010101EEA0F0C9
:10074000E9500201AE51B26FD890B235E926EE50B1
:10075000B06FEF50B16FAE51B26F010101EEA8F072
:10076000E9500201AE51B76FD890B735E926EE5087
:10077000B36FEF50B46FB151EA6EB051E96EEC5007
:10078000B56FB66B41EC02F0010101EEB0F0E9503B
:100790000201AE51B26FD890B237B251E926EE5095
:1007A000B36FEF50B46FB151EA6EB029E96EB35137
:1007B000EF6EE906EF9CEF9AEF98EF96EF94EF92C9
:1007C000EF90EF8E1200A1AA1200A19A68B8689863
:1007D00068A603D09BEC02F0689668A003D076EC84
:1007E00002F0689068AA03D075EC02F0689A68BCC1
:1007F000689C1200010E0201AF6F780EAE6FAF5110
:10080000EA6EAE51E96EEE50B06FEE50B16FEE5041
:10081000B26FB02BD8B4B12BD8B4B22BD8B4EF2A66
:10082000E906B251EF6EE906B151EF6EE906B0513B
:10083000EF6E000E01018C27000E8D23200E8E23FB
:10084000000E8F23B50ED627010ED723020E8F5D23
:1008500008E1DC0E8E5D05E16C0E8D5D02E1000E9F
:100860008C5DD8A01200D66BD76B902BD8B4912B8F
:10087000D8B4922BD8B4932B000E8C5F6C0E8D5B8A
:10088000DC0E8E5B020E8F5B1200ACA2FED77151A4
:10089000AD6E12008C6B8D6B8E6B8F6B866B876B66
:1008A000886B896B8A6B200E8A158B6F8B671200A1
:1008B000D89086378737883789377E377F378037B4
:1008C00081378C378D378E378F3785518F5D08E1B3
:1008D00084518E5D05E183518D5D02E182518C5D15
:1008E00009E382518C5F83518D5B84518E5B85510E
:1008F0008F5B86818A2BD7D7796B7A6B756B766B1A
:10090000776B100E7715786F78671200D89075376F
:1009100076377137723779377A377351795D745119
:100920007A637A5D05E37351795F74517A5B7581FF
:10093000772BE7D7856B866B876B886B8B6B8C6BA4
:100940008D6B8E6B896B200E89158A6F8A671200FA
:10095000D8908B378C378D378E377D377E377F3702
:10096000803785378637873788378451885D08E137
:100970008351875D05E18251865D02E18151855D8C
:1009800009E38151855F8251865B8351875B845186
:10099000885B8B81892BD7D7746B756B786B796B80
:1009A000766B100E7615776F77671200D8907837D0
:1009B000793770377137743775377251745D735189
:1009C0007563755D05E37251745F7351755B788172
:1009D000762BE7D7010101EEA4F0E95002019F5107
:1009E000A86FD890A835E926EE50A66FEF50A76FF4
:1009F000010101EE9CF0E95002019F51A86FD890CF
:100A0000A835E926EE50A46FEF50A56FA551EA6E08
:100A1000A451E96EEFBE1200A36BA251A36113D0E3
:100A2000A151EA6EA051E96EA351A86FA851E92621
:100A3000EF50A96FA751EA6EA651A325E96EA951FF
:100A4000EF6EA32BEAD7A551EA6EA429E96EA35154
:100A5000EF6EE906020EE926E92AA651A86FA75112
:100A6000EF6EE906A851EF6E0CA505D0A551EA6E10
:100A7000A451E96EEF9CA551EA6EA451E96EEFAC6A
:100A800006D0A551EA6EA451E96EEF9C05D0A551A0
:100A9000EA6EA451E96EEF8CA551EA6EA451E96E9D
:100AA000EF9AEF98EF86EF94EF92EF90EF8E1200AF
:100AB0007051EA6E6F51E96EEF52D8B41200705166
:100AC000EA6E6F51E96EEF50716F45EC04F06F4BB9
:100AD000702BEED7766B776B72AF1DD00A0E7563F5
:100AE0001AD06F5100087D6F000E7E6F70517E5BD3
:100AF000000E7F6F71517F5B000E806F7251805BC3
:100B00007D516F6F7E51706F7F51716F8051726F29
:100B10002D0E766F772B6F51786F7051796F715101
:100B20007A6F72517B6F772B78517D6F79517E6F21
:100B30007A517F6F7B51806F7551816F826B836BB0
:100B4000846B9AEC04F08B51786F8C51796F8D51D6
:100B50007A6F8E517B6F785179117A117B11FF0B6F
:100B6000E2E16F51786F7051796F71517A6F725104
:100B70007B6F7C6B772941E07451EA6E7351772566
:100B8000E96E7C51EF6E772F05D0765303E07651F6
:100B90007C6FF0D778517E6F79517F6F7A51806F7B
:100BA0007B51816F7551826F836B846B856B4AECCF
:100BB00004F08C517D6F7D517C6F090E7C6503D0F4
:100BC000370E7C2702D0300E7C2778517D6F79510B
:100BD0007E6F7A517F6F7B51806F7551816F826B11
:100BE000836B846B9AEC04F08B51786F8C51796F26
:100BF0008D517A6F8E517B6FBDD773517D6F74515C
:100C00007E6F12006B6B6C6B67AF0BD00A0E6A6362
:100C100008D0661F671F662BD8B4672B2D0E6B6F2D
:100C20006C2B66516D6F67516E6F6C2B6D51706FD1
:100C30006E51716F6A51726F736BCCEC04F0785126
:100C40006D6F79516E6F6D53F0E16E53EEE1665149
:100C50006D6F67516E6F6F6B6C2931E06951EA6E91
:100C600068516C25E96E6F51EF6E6C2F05D06B5398
:100C700003E06B516F6FF0D76D51716F6E51726FF2
:100C80006A51736F746B7CEC04F07951706F705122
:100C90006F6F090E6F6503D0370E6F2702D0300ECD
:100CA0006F276D51706F6E51716F6A51726F736BF8
:100CB000CCEC04F078516D6F79516E6FCDD76851DF
:100CC000706F6951716F1200A69CA6B2FED76E516B
:100CD000A96E6F51A86EA69EA6840C95F2BE0C85D7
:100CE000F29E550EA76EAA0EA76EA682A6940CB50C
:100CF000F28E0CA5F29E12000101EF5304E0010EEA
:100D000002019E6F1200010E02019F6F9B51A06FA6
:100D10009C51A16F400EA26F0C95EAEC04F0010EFD
:100D20000101EF6F02019E6B12000101F26B6F96E1
:100D30006F846F886F926F90040E9D6F040E9C6F8E
:100D4000040E9F6F0C0E9E6F040EA16F000EA06F1D
:100D5000040EA36F080EA26F708870847082709664
:100D6000698A69866980A08A1200610E6B6101D070
:100D700007D06B517A0804E3DF0E6B156C6F12001D
:100D80006B516C6F12005D516F6F5E51706F5F51F0
:100D9000716F6051726F020E746F610E736F0A0E85
:100DA000756F6AEC05F0020E706F610E6F6F58EC94
:100DB00005F012005D51666F5E51676F020E696F3C
:100DC0005F0E686F0A0E6A6F02EC06F0020E706F1B
:100DD0005F0E6F6F58EC05F0120001019051020197
:100DE0009B6F0101915102019C6F0101925102011F
:100DF0009D6F0101935102019E6F1200200E6B63E3
:100E000001D013D0090E6B6301D00FD00B0E6B63B2
:100E100001D00BD00A0E6B6301D007D00D0E6B63AF
:100E200001D003D00C0E6B6303D0010E6C6F120067
:100E30006C6B12006D6B6C516D6112006B516E6FBB
:100E40006A51EA6E69516D25E96EEF506F6F64EC7F
:100E500006F06B2B6D2BEFD7A6B2FED72551A96EEE
:100E6000A69EA69CA680A850266F1200876B886B52
:100E7000896B8A6B896B8A6B73517703F350876F29
:100E8000F450886F74517703F3508827F450892306
:100E9000D8B08A2B75517703F3508927F4508A23F1
:100EA00076517703F3508A2773517803F3508827DC
:100EB000F4508923D8B08A2B74517803F3508927D2
:100EC000F4508A2375517803F3508A2773517903BC
:100ED000F3508927F4508A2374517903F3508A27F9
:100EE00073517A03F3508A2712000201656B0101E6
:100EF000EF530AE0C80E0201656106D0010E666F6D
:100F00000EEC00F0652BF3D70201666B662B010136
:100F1000EF6701D002D00201669102010C95665183
:100F2000D8A40C851200F29EF2BEFDD795EC06F017
:100F3000F28CF28E1200686A6D86010E0101F26F6A
:100F40001200120E4D6E010E4E6E100E4F6E010EFF
:100F5000506E516A526A536A080E546ED80E556E1E
:100F6000040E566E0C0E576E586A596A010E5A6E70
:100F70005B6E020E5C6E5D6A010E5E6E090E010113
:100F8000456F020E466F290E476F486B010E496F81
:100F90004A6F4B6B800E4C6F4B0E4D6F090E4E6FB0
:100FA000040E4F6F506B516B020E526F030E536F56
:100FB000546B556B566B090E576F210E586F100E00
:100FC000596F010E5A6F5B6B010E5C6F220E5D6FE5
:100FD0001D0E5E6F5F6B070E686F050E696F810EE9
:100FE0006A6F030E6B6F400E6C6F6D6B640E6E6FED
:100FF000070E6F6F050E706F010E716F030E726F2B
:10100000400E736F746B640E756F4D510001A86FC5
:1010100001014C510001A76F01014B510001A66F66
:1010200001014A510001A56F010149510001A46F5E
:10103000010148510001A36F010147510001A26F56
:10104000010146510001A16F010145510001A06F4E
:10105000010156510001B16F010155510001B06FFE
:10106000010154510001AF6F010153510001AE6FF6
:10107000010152510001AD6F010151510001AC6FEE
:10108000010150510001AB6F01014F510001AA6FE6
:1010900001014E510001A96F01015F510001BA6FBA
:1010A00001015E510001B96F01015D510001B86F8E
:1010B00001015C510001B76F01015B510001B66F86
:1010C00001015A510001B56F010159510001B46F7E
:1010D000010158510001B36F010157510001B26F76
:1010E00001016E510001C16F01016D510001C06F1E
:1010F00001016C510001BF6F01016B510001BE6F16
:1011000001016A510001BD6F010169510001BC6F0D
:10111000010168510001BB6F010175510001C86FE9
:10112000010174510001C76F010173510001C66FC5
:10113000010172510001C56F010171510001C46FBD
:10114000010170510001C36F01016F510001C26FB5
:101150001200646B656B666B676B0C950C97686926
:10116000010E696F682B6051EA6E5F516825E96E68
:10117000EF506A6F69A108D06A516B6FFEEC06F000
:101180006C53F0E1080E696F69A70BD0020E696F0E
:101190002D0E6A6302D00C85E5D72B0E6A6301D051
:1011A000E1D769A30ED063530AE1300E6A6305D01C
:1011B000080E636F040E696FD5D70A0E636F100EA9
:1011C000696F69A508D0100E696F780E6A6303D045
:1011D000100E636FC7D76A516B6FB5EC06F06C5198
:1011E0006A6F0A0E636507D0410E6A6101D003D0B1
:1011F000370E6A5F02D0300E6A5F6A51636101D0B8
:1012000075D064516B6F65516C6F66516D6F67512E
:101210006E6F6451736F6551746F6651756F67516E
:10122000766F6351776F786B796B7A6B36EC07F07A
:1012300087517B6F88517C6F8951856F8A51866F8A
:101240007B51646F7C51656F8551666F8651676F06
:101250006A51736F746B756B766B7351642774513D
:1012600065237551662376516723736B64517D6FD7
:1012700065517E6F66517F6F6751806F67AF0CD08D
:101280007D1F7E1F7F1F801F7D2BD8B47E2BD8B47F
:101290007F2BD8B4802B732B6351816F826B836B50
:1012A000846B9AEC04F08B516F6F8C51706F8D5181
:1012B000716F8E51726F73A10BD06F1F701F711FF2
:1012C000721F6F2BD8B4702BD8B4712BD8B4722B7B
:1012D0006F516B5D09E170516C5D06E171516D5D9F
:1012E00003E172516E5DD8A40C873CD7615302E1D3
:1012F000625311E068516B6F6A6B5F516B276051ED
:101300006A236251EA6E6151E96EE92A6A51EF6E11
:10131000E9066B51EF6E0CA705D0646965696669D3
:101320007F0E676F0CA517D0645100086A6F000E1E
:101330006B6F65516B5B000E6C6F66516C5B000EE2
:101340006D6F67516D5B6A51646F6B51656F6C5166
:10135000666F6D51676F64516A6F65516B6F66514F
:101360006C6F67516D6F1200626B636B0C950C971D
:101370006469010E656F642B5E51EA6E5D516425F0
:10138000E96EEF50666F65A108D066516B6FFEEC99
:1013900006F06C53F0E1080E656F65A70BD0020EE6
:1013A000656F2D0E666302D00C85E5D72B0E666344
:1013B00001D0E1D765A30ED061530AE1300E666318
:1013C00005D0080E616F040E656FD5D70A0E616FE8
:1013D000100E656F65A508D0100E656F780E6663F8
:1013E00003D0100E616FC7D766516B6FB5EC06F076
:1013F0006C51666F0A0E616507D0410E666101D0BF
:1014000003D0370E665F02D0300E665F66516161B1
:1014100001D03CD06251676F6351686F61516203C4
:10142000F3506B6FF4506C6F61516303F3506C2792
:101430006B51626F6C51636F66516227D8B0632B3A
:101440006B6B6251706F6351716F63AF06D0701F29
:10145000711F702BD8B4712B6B2B6151726F736B32
:10146000CCEC04F07851696F79516A6F6BA105D0AB
:10147000691F6A1F692BD8B46A2B6951676304D04E
:101480006A5168636A6377D70C8775D75F5302E147
:10149000605311E06451676F666B5D5167275E5161
:1014A00066236051EA6E5F51E96EE92A6651EF6E7C
:1014B000E9066751EF6E0CA703D062697F0E636F78
:1014C0000CA505D0621F631F622BD8B4632B625139
:1014D000666F6351676F12006F6B6C51706F6C07B2
:1014E00070531FE05C51EA6E5B516F25E96EEF505F
:1014F0006D6F5E51EA6E5D51E96E6F516F2BE9269B
:10150000EF506E6F6E516D6102D0716912006D51B6
:101510006E6103D0010E716F12006D67DED7716BC3
:101520001200716B1200676B6651EA6E6551E96ECD
:101530006751672BE926EF52F7E1670712006E6BE0
:101540006651EA6E6551E96EEF5203E0654B662B1A
:10155000F7D76851EA6E6751E96E6E516E2BE92636
:10156000EF506F6F6651EA6E6551E96E654B662B01
:101570006F51EF6EEEE112000101D3510C0802E150
:10158000D2517C0805E27C0E02015D6F0C0E5E6F8D
:1015900002015D510101D26F02015E510101D36F61
:1015A00002015D510101D46F02015E310101D56F6D
:1015B000D433D533D4333F0ED517030E02015D1556
:1015C0000101E96FD45102015F6F0101D5310201C0
:1015D000606F5F3360335F335F51BE6E0F0EBD16B9
:1015E0000101D4B1BD88D4B3BD8A1200440E0201FA
:1015F0005B6F010E5C6F5D6B5E6B0101E8A504D053
:10160000010E02015D6F5E6B0101E8A305D0020EC1
:1016100002015D27D8B05E2B0101E8A705D0040EBA
:1016200002015D27D8B05E2B0001FB5102015F6F04
:101630000001FC510201606F0001FD510201616F68
:101640000001FE510201626FEDEC06F09B51676FE5
:101650009C51686F9D51696F9E516A6F01017C5169
:101660000201675D636F01017D5102016859646F7A
:1016700001017E5102016959656F01017F5102012B
:101680006A59666F0101885102016B6F010189512E
:1016900002016C6F01018A5102016D6F01018B51D2
:1016A00002016E6F0101C85102016F6F0101C95142
:1016B0000201706F0101CA510201716F0101CB512A
:1016C0000201726F0101CC510201736F0101CD5112
:1016D0000201746F0101CE510201756F0101CF51FA
:1016E0000201766F0101D0510201776F0101D151E2
:1016F0000201786F0101D2510201796F0101D351CA
:1017000002017A6F0101805102017B6F0101815159
:1017100002017C6F0101825102017D6F0101835141
:1017200002017E6F7C0E7F6F0C0E806F816B020E4C
:101730009C6F5B0E9B6F400E9D6F7CEC06F0120061
:101740004F0E02015D6F4B0E5E6F200E5F6F606B80
:10175000020E706F5D0E6F6F58EC05F00001FB51CB
:1017600002015D6F0001FC5102015E6F0001FD513D
:1017700002015F6F0001FE510201606FC3EC06F0D1
:101780002C0E716F45EC04F0EDEC06F001017C517C
:1017900002019B5D5D6F01017D5102019C595E6FED
:1017A00001017E5102019D595F6F01017F510201CC
:1017B0009E59606FC3EC06F02C0E716F45EC04F07F
:1017C000EDEC06F09B515D6F9C515E6F9D515F6F1C
:1017D0009E51606FC3EC06F02C0E716F45EC04F067
:1017E0000101885102015D6F0101895102015E6FA3
:1017F00001018A5102015F6F01018B510201606F8B
:10180000C3EC06F02C0E716F45EC04F00101C851D9
:1018100002015D6F0101C95102015E6FDAEC06F051
:101820002C0E716F45EC04F00101CA5102015D6F8D
:101830000101CB5102015E6FDAEC06F02C0E716FE4
:1018400045EC04F00101CC5102015D6F0101CD5165
:1018500002015E6FDAEC06F02C0E716F45EC04F0BD
:101860000101CE5102015D6F0101CF5102015E6F96
:10187000DAEC06F02C0E716F45EC04F00101D0514A
:1018800002015D6F0101D15102015E6FDAEC06F0D9
:101890002C0E716F45EC04F00101D25102015D6F15
:1018A0000101D35102015E6FDAEC06F02C0E716F6C
:1018B00045EC04F00101805102015D6F010181518D
:1018C00002015E6F0101825102015F6F01018351CC
:1018D0000201606FC3EC06F02C0E716F45EC04F052
:1018E0005B6B5C6B0101E8A504D0010E02015B6F2C
:1018F0005C6B0101E8A305D0020E02015B27D8B0A2
:101900005C2B0101E8A705D0040E02015B27D8B0CB
:101910005C2B02015B515D6F5C515E6FDAEC06F08F
:101920002C0E716F45EC04F07C0E716F45EC04F0E9
:101930000A0E716F45EC04F01200450E02015B6F58
:10194000230E5C6FA10E5D6FA50E5E6F0101C85185
:101950000201676F0101C9510201686F01018851DD
:1019600002015F6F010189510201606F01018A511B
:101970000201616F01018B510201626F020E6A6FF9
:101980005B0E696F6B6B0E0E6C6F1AEC07F012003A
:10199000C80ECE6402D0CF28FBE0CE500101766F96
:1019A000CF50776F12000001FF6B0101E66B000161
:1019B000FB6BFC6BFD6BFE6BEDEC06F09B510101CC
:1019C0007C6F02019C5101017D6F02019D5101015B
:1019D0007E6F02019E5101017F6F1200020E6A6F3D
:1019E0005C0E696F5B516B6F040E6C6F1AEC07F045
:1019F0001200246B2351246112002251256F2CEC1C
:101A000007F02151EA6E20512425E96E2651EF6E30
:101A1000222B242BEFD7400E5A6502D0400E5A6F6E
:101A20005851C86F5951C96F000ECB6F600ECA6F05
:101A30005A51CC6F63EC00F012000201176B0101E8
:101A4000EF6701D002D00201178102010C931751F8
:101A5000D8A40C831200A1EC07F093EC07F0640EFD
:101A60000201666F0EEC00F09BEC07F00201126BB6
:101A7000136B146B12000201166B0101F16701D0A8
:101A800002D00201168102010C931651D8A40C83D6
:101A900012000201176B0101F05305E0F051020141
:101AA000176F0101F06B02011751186F1200948C2F
:101AB000948EAC84B886040EB06EE10EAF6EAC9816
:101AC000AB8EAC8AAB889D8A1200CD9001018C6BE5
:101AD0008D6B8E6B8F6B906B916B926B936B946B2A
:101AE000956B966B976BD66BD76B766B776B786BCA
:101AF000796B7A6B7B6BE899E89DCE6ACF6A9F9091
:101B00009D80CD8ECD8ACD88CD92E89B986B996BC8
:101B10009A6B9B6BCD801200C8EC0CF0010E020199
:101B2000176F760E166F1751EA6E1651E96EEE506A
:101B3000186FEE50196FEE501A6F18511B6F195134
:101B40001C6F1A511D6FEF501E6F12000101905152
:101B500002017E6F0101915102017F6F01019251DB
:101B60000201806F010193510201816F3C0E826F6F
:101B7000836B846B856B4AEC04F08C51166F1200FA
:101B80000101E887E893E885400E886F420E896F6F
:101B90000F0E8A6F8B6B410EC86FC96B020E02016C
:101BA000216F120E206F226B0E0E236FF9EC0CF0DA
:101BB0001251450820E1135123081DE11451A108D9
:101BC0001AE11551A50817E116510101886F0201AC
:101BD00017510101896F0201185101018A6F020139
:101BE000195101018B6F02011E510101C86F0201E1
:101BF0001F510101C96F0A0E0101C85D03E2C967E7
:101C000001D006D0C951010802E1C851F40803E22D
:101C1000410EC86FC96B8B51000808E18A51160844
:101C200005E18951E30802E1885160080DE3000EE7
:101C30008B5D08E1070E8A5D05E1A10E895D02E179
:101C4000200E885DD8B01200400E886F420E896F5A
:101C50000F0E8A6F8B6B1200D3EC0CF0CA6BCB6B40
:101C6000806B816B826B836BCE6BCF6B9380938227
:101C700094908290F08CF19CF18AF292F288F0902C
:101C8000F086F28CA082A292B18EB18AB188B19214
:101C90001200D58CD59AD586F28AF28ED58E93967F
:101CA0009398C70E8114816E5F6A120094940C0E93
:101CB000BD6EC70ECB6E9D82CA80CA92CA96CA9864
:101CC000CA9ACA9CCA840400640E0101D26FD36B05
:101CD0000B0E0101D35D02E1B80ED25DD8B0120047
:101CE00002015E6B040E0101D22502015D6F01014C
:101CF000D35102015E23BCEC0AF0020E0201666FB2
:101D00000EEC00F0E5D7C26AC19AC1880E0EC1126E
:101D1000C08EC084C082C090C08AC098C096010E98
:101D2000C26E0101CC6BCD6B12000101CC510201DE
:101D3000736F0101CD510201746F756B766B700E7C
:101D4000776F520E786F3D0E796F000E7A6F36EC1A
:101D500007F087517D6F88517E6F89517F6F8A515F
:101D6000806FE80E816F030E826F836B846B9AEC39
:101D700004F08B517D6F8C517E6F8D517F6F8E5132
:101D8000806F5C0E816F120E826F836B846B9AEC96
:101D900004F08B51736F8C51746F8D51756F8E5130
:101DA000766F010188510201776F010189510201AB
:101DB000786F01018A510201796F01018B51020193
:101DC0007A6F36EC07F087517D6F88517E6F8951AD
:101DD0007F6F8A51806F400E816F420E826F0F0EAF
:101DE000836F000E846F9AEC04F08B510101846FB5
:101DF00002018C510101856F02018D510101866F35
:101E000002018E510101876FE8A51200000E875D67
:101E100008E1000E865D05E1010E855D02E1BD0E63
:101E2000845D0CE2D24BD32BD25102015D6F0101D4
:101E3000D35102015E6FBCEC0AF01200875100081A
:101E400008E18651000805E18551010802E184514D
:101E5000CC08D8B01200010ED265D36701D004D0EF
:101E6000D253D8B4D307D207D25102015D6F01011A
:101E7000D35102015E6FBCEC0AF012000C93585172
:101E80005B6F59515C6F670E5F6F650E606F740E0C
:101E9000616F626B020E5E6F5F0E5D6F030E6C6FA3
:101EA0006CEC0AF071530BE104005A0505E175EC86
:101EB00007F0F6EC0AF06CD2A0EC0BF069D25851A6
:101EC0005B6F59515C6F770E5F6F640E606F740EBD
:101ED000616F626B020E5E6F5F0E5D6F030E6C6F63
:101EE0006CEC0AF0715303E10C83040051D2585199
:101EF0005B6F59515C6F650E606F626F720E5F6F42
:101F0000730E616F740E636F646B020E5E6F5F0E13
:101F10005D6F050E6C6F6CEC0AF0715303E10C837E
:101F2000FF0036D258515B6F59515C6F630E5F6F83
:101F30006C0E606F650E616F610E626F720E636F83
:101F4000646B020E5E6F5F0E5D6F050E6C6F6CEC66
:101F50000AF0715304E10C83D3EC0CF019D2585100
:101F60005B6F59515C6F630E5F6F610E606F6C0E3B
:101F7000616F626B020E5E6F5F0E5D6F030E6C6FC2
:101F80006CEC0AF0715340E1040E5F6F606B5851C6
:101F90005F2759516023616B626B0A0E636FA9EC76
:101FA00008F06A515B6F6B515C6F6C515D6F6D51E6
:101FB0005E6F5E51000808E15D51070805E15C5164
:101FC000A10802E15B512008D8B0E2D1000E5E5DAD
:101FD00008E1160E5D5D05E1E30E5C5D02E1600E59
:101FE0005B5DD8B0D5D10C835B510101886F0201D4
:101FF0005C510101896F02015D5101018A6F02018B
:102000005E5101018B6FC4D158515B6F59515C6FA8
:10201000730E5F6F610E606F760E616F650E626F9B
:10202000636B020E5E6F5F0E5D6F040E6C6F6CEC87
:102030000AF0715304E10C839DEC0CF0A9D15851C6
:102040005B6F59515C6F640E5F6F650E606F660E5B
:10205000616F610E626F750E636F6C0E646F740E4C
:10206000656F666B020E5E6F5F0E5D6F070E6C6FC5
:102070006CEC0AF0715309E15B6B5C6B5D6B5E6B42
:102080005F6BEEEC0CF00C8383D158515B6F5951B0
:102090005C6F720E5F6F650E606F6D0E616F200E6C
:1020A000626F770E636F610E646F740E656F630EFF
:1020B000666F680E676F640E686F6F0E696F670EEC
:1020C0006A6F6B6B020E5E6F5F0E5D6F0C0E6C6F56
:1020D0006CEC0AF0715315E15951EA6E5851E96EF2
:1020E0000D0EE9265B6B310EEF6201D05B2B010117
:1020F000E89302015BA102D00101E88302010C8395
:1021000047D158515B6F59515C6F640E676F650E14
:10211000626F680E606F646F6C0E666F6F0E656F36
:10212000720E616F730E636F740E5F6F686B020ED9
:102130005E6F5F0E5D6F090E6C6F6CEC0AF0715391
:1021400020E10A0E5D6F5E6B58515D2759515E2389
:102150005F6B606B0A0E616FB4EC09F066515B6FE8
:1021600067515C6F000E5B655C6701D007D05B5107
:102170000101C86F02015C510101C96F02010C83AA
:1021800007D158515B6F59515C6F700E5F6F770EBE
:10219000606F6D0E616F626B020E5E6F5F0E5D6F42
:1021A000030E6C6F6CEC0AF071531AE1040E5D6F54
:1021B0005E6B58515D2759515E235F6B606B0A0E51
:1021C000616FB4EC09F066515B6F67515C6F5B51F6
:1021D0005D6F5C515E6FBCEC0AF002010C83D8D0DD
:1021E00058515B6F59515C6F610E5F6F750E606F78
:1021F000740E616F6F0E626F200E636F700E646FEE
:10220000770E656F6D0E666F676B020E5E6F5F0E09
:102210005D6F080E6C6F6CEC0AF0715315E159514B
:10222000EA6E5851E96E090EE9265B6B310EEF62DA
:1022300001D05B2B0101E89502015BA102D00101F5
:10224000E88502010C83A4D058515B6F59515C6F33
:10225000200E636F610E5F6F620E666F6F0E626FAE
:10226000730E656F740E616F750E606F646F676BD0
:10227000020E5E6F5F0E5D6F080E6C6F6CEC0AF005
:10228000715313E15951EA6E5851E96E090EE9266E
:102290005B6B310EEF6201D05B2B0101E89702010D
:1022A0005BA102D00101E88773D058515B6F59518F
:1022B0005C6F730E5F6F770E606F200E616F760E2E
:1022C000626F650E636F720E646F656B020E5E6FF8
:1022D0005F0E5D6F060E6C6F6CEC0AF0715358E187
:1022E0005A0536E175EC07F05B6B020E666F5B0E0C
:1022F000656F4F0E696F4B0E6A6F200E6B6F6C6BC4
:10230000020E686F690E676F9FEC0AF0020E666F2F
:102310005B0E656F330E696F2E0E6A6F300E6B6F3A
:10232000310E6C6F6D6B020E686F690E676F9FECFC
:102330000AF0020E9C6F5B0E9B6F020E666F5B0EC7
:10234000656F93EC0AF067299D6F7CEC06F020D056
:102350004F0E5B6F4B0E5C6F200E5D6F5E6B020E5F
:10236000706F5B0E6F6F58EC05F0330E5B6F2E0EC7
:102370005C6F300E5D6F310E5E6F5F6B020E706FC3
:102380005B0E6F6F58EC05F00A0E716F45EC04F0B0
:1023900002010CA312005A0510E175EC07F04F0E74
:1023A0005B6F4B0E5C6F5D6B020E9C6F5B0E9B6FE9
:1023B000030E9D6F7CEC06F012004F0E5B6F4B0E10
:1023C0005C6F0A0E5D6F5E6B020E706F5B0E6F6F5F
:1023D00058EC05F01200D0B604D00101D04BD12B3F
:1023E00003D00101D06BD16B6D966F869494D08E23
:1023F0000F0EC16EA29A9492828265EC0DF0C0EC31
:102400000DF00400010E0201126F50EC00F0040008
:102410002BEC0DF00400010E126F50EC00F00400E4
:10242000010E126F50EC00F004000101E76BE8911F
:1024300057EC0DF083EC0EF049EC0EF056EC0EF07C
:10244000FA0E0201666F0EEC00F02CEC0EF00400A8
:102450000201076B086B096B0A6B0B6B0C910D6B20
:102460000E6B0F6B106B116B0101E6510001FF63E6
:1024700001D002D00101E6631DD0EDEC06F09B51C6
:102480000101806F02019C510101816F02019D5188
:102490000101826F02019E510101836FE62B000151
:1024A000FB2BD8B4FC2BD8B4FD2BD8B4FE2B0201E7
:1024B000072BDAD78CEC0DF008511B5D126F095118
:1024C0001C59136F0A511D59146F0B511E59156F6A
:1024D0001551000808E11451020805E1135149089B
:1024E00002E11251F0081CE2000E07650DD00CB19C
:1024F0000707FF0E0CB1FE0E166F0C9116B10C8182
:102500000CB182800CA182909E9CC2828CEC0DF05A
:102510001B51086F1C51096F1D510A6F1E510B6F23
:102520009EAC08D0C3500101CC6FC450CD6F95EC68
:102530000EF09E9C3BEC0DF00CA31ED00101E8A711
:1025400005D01DEC0DF00CA3F6EC0AF049EC0DF0F3
:102550001851166F165310E0020E596F170E586F70
:10256000400E5A6F0BEC0DF0020E596F170E586F9C
:10257000010E5A6F3EEC0FF0A6EC0DF016510D63F4
:1025800016630CD0FF0E82B2FE0E166F16B1828259
:1025900016A18292A6EC0DF016510D6F0101E8A173
:1025A0000BD0000E0201596F0C0E586F5A6B3EECA7
:1025B0000FF00101E76BE891E8B356D7040054D758
:1025C000D8CF05F0E0CF06F0EACF07F0E9CF08F06A
:1025D000F4CF09F0F3CF0AF00B6E9EA003D0FAEC13
:1025E00003F09E90A1A20AD0F29CB190B36AB26AA5
:1025F000A1920101CA6BCB6BCE4BCF2BE3EC03F066
:102600000B500AC0F3FF09C0F4FF08C0E9FF07C080
:10261000EAFF06C0E0FF05C0D8FF1000000E010170
:10262000EB6F010EEC6F020EED6F030EEE6F260ED8
:102630000001C96F030ECA6F550ECB6FCC6B530EE2
:10264000CD6FCE6B420ECF6FD06B200ED16FD26BA1
:10265000470ED36FD46B650ED56FD66B690ED76FEF
:10266000D86B670ED96FDA6B650EDB6FDC6B720EA1
:10267000DD6FDE6B200EDF6FE06B430EE16FE26B10
:102680006F0EE36FE46B750EE56FE66B6E0EE76F32
:10269000E86B740EE96FEA6B650EEB6FEC6B720E14
:1026A000ED6FEE6B260E0101006F030E016F550EEC
:1026B000026F036B530E046F056B420E066F076BC0
:1026C000200E086F096B470E0A6F0B6B650E0C6FBF
:1026D0000D6B690E0E6F0F6B670E106F116B650E31
:1026E000126F136B720E146F156B200E166F176B33
:1026F000430E186F196B6F0E1A6F1B6B750E1C6FE4
:102700001D6B6E0E1E6F1F6B740E206F216B650E9E
:10271000226F236B720E246F256B060E286F296BB8
:102720002A69090E2B6F010E2C6FA10E2D6F010E61
:102730002E6F190E2F6F010E306F290E316F400E64
:10274000326F150E336F346B260E356F3669376B6B
:10275000750E386F080E396F950E3A6F400E3B6F4D
:10276000810E3C6F020E3D6F190E3E6F010E3F6FE2
:10277000290E406F400E416F910E426F020E436F63
:10278000C00E446F0A0E0001F16F030EF26F300E9F
:10279000F36FF46B300EF56FF66B300EF76FF86B6E
:1027A000310EF96FFA6B0101F06BEF6BF16BF26BAD
:1027B000050EF86F080EA46FF851A56F050EF96F9E
:1027C000100EA66FF951A76F050EFA6F000EA86FD5
:1027D000FA51A96F050EFB6F500EAA6FFB51AB6F3C
:1027E000080EAC6FAD6B400EAE6FAF6B080EB06FE6
:1027F000B16B400EB26FB36B040EB46F030EB56FC6
:10280000090EB66F040EB76FFC6BFD6BB86BB96B3E
:10281000BA6BBB6BBC6BBD6BBE6BBF6BC06BC16B74
:10282000C26BC36B0201016B026B0101E46BE56BD0
:102830000201036B046B056B066B0101C46BC56B76
:10284000C66BC76BFF6B0201006B0101FE6BEBEF08
:1028500011F0EACF01F0E9CF02F0F4CF03F0F3CFAB
:1028600004F09EA234D00101E951EA610BD0D451A9
:102870000201AA6F0101D5510201AB6FAA2BD8B496
:10288000AB2B07D0D4510201AA6F0101D55102012F
:10289000AB6FAA51AC6FAB31AD6FAC33AD33AC3372
:1028A000AC51BE6EAAB3BD88AAA3BD98AAB5BD8A15
:1028B000AAA5BD9A0F0EBD16AAB1BD88AAB3BD8A3E
:1028C0000101EA2B040EEA6301D0EA6B9E92F2A4A6
:1028D0000DD05F5205E0C70E8114816E5F6A05D08E
:1028E000380E8110816E010E5F6EF294F2A204D058
:1028F000B36AB26AB180F292F0A032D0B250020153
:10290000AA6FB350AB6FAA51AC6FAB51AD6F000E55
:10291000AC65AD6701D009D0ADBF07D0AC510101A6
:10292000CA6F0201AD510101CB6F0201AD5101012E
:10293000C95D04E10201AC510101C85D01E30EE192
:102940000201ADBF0BD00001FF2B0101C8510201F4
:10295000AC5F0101C9510201AD5BE7D7B190F090C6
:102960009EAA1DD0AE500201AA6F0101E8B117D096
:102970000D0E0201AA6301D003D00A0EAA6304D08F
:102980000101E8810201AA6B00EE0CF0E95001019F
:10299000E751E9260201AA51EF6E0101E72B04C0BD
:1029A000F3FF03C0F4FF02C0E9FF01C0EAFF11001A
:020000040030CA
:0E000000E23EF7F5FF78BBFFFFFFFFFFFFFFBB
:00000001FF
